:020000040800F2
:1000000068100020310B0008690200086B0200082C
:100010006F02000873020008770200080000000069
:100020000000000000000000000000007B0200084B
:100030007D020008000000007F0200088102000825
:100040004B0B00084B0B00084B0B00084B0B000838
:100050004B0B00084B0B0008250300083703000872
:10006000490300085B0300086D0300084B0B000800
:100070004B0B00084B0B00084B0B00084B0B000808
:100080004B0B00084B0B00084B0B00084B0B0008F8
:100090004B0B00084B0B00084B0B00087F030008BC
:1000A0004B0B00084B0B00084B0B00084B0B0008D8
:1000B0004B0B00084B0B0008C70200084B0B000855
:1000C0004B0B00084B0B00084B0B00084B0B0008B8
:1000D0004B0B0008830200084B0B00084B0B000879
:1000E0004B0B00084B0B00084B0B00084B0B000898
:1000F0004B0B00084B0B00084B0B00084B0B000888
:100100004B0B00084B0B0008E30200084B0B0008E8
:100110004B0B00084B0B0008F90200080F03000806
:100120004B0B00084B0B00084B0B00084B0B000857
:10013000DFF80CD002F0E0FE00480047650100083F
:1001400068100020EFF30980704780F3098870473A
:10015000EFF30880704780F30888704740BA704713
:10016000C0BA704710B502F084FE582234480168C6
:10017000344800F0D1FB32480068006A401C08B9DE
:1001800000F09CFC00203049088008E000F06BFC87
:1001900000B909E02C480088401C2B4908802A48F7
:1001A0000088B0F5007FF1DB00BF25480068006AD9
:1001B0002649884205D022480068006A24498842BE
:1001C00005D11F480068006A2249086002E01F4804
:1001D000204908601F48006800681F490840B0F1C6
:1001E000005F2BD11D480088174908804FF45871D3
:1001F0001A48001F01F0D4F828211848001F01F008
:10020000CFF860211548001F01F0CAF800211348FB
:10021000001F00F0AAFF0F480068406810490860FE
:10022000084600680F4908600A4909680868FFF72E
:1002300092FF72B671B60B4800688047002010BD6F
:100240000800002000F80708140000200000010842
:1002500000780408040000200000FE2F043801404C
:10026000100000200C000020704700BFFEE700BF18
:10027000FEE700BFFEE700BFFEE77047704770472C
:10028000704710B50821494801F04AF818B1082113
:10029000464801F052F840F22551444801F056F822
:1002A00058B140F22551414801F07AF83F4800F03A
:1002B000CDFFC4B2204600F0A1F840F227713B48C0
:1002C00001F044F810BD10B50121394802F06BF877
:1002D00030B10121364802F077F801203549087025
:1002E00010BD10B50121344802F05DF818B10121AC
:1002F000314802F069F810BD10B501212F4802F015
:1003000052F818B101212D4802F05EF810BD10B569
:1003100001212B4802F047F818B10121284802F0CA
:1003200053F810BD10B5012000F088FC10B1012079
:1003300000F095FC10BD10B5022000F07FFC10B15C
:10034000022000F08CFC10BD10B5042000F076FCFB
:1003500010B1042000F083FC10BD10B5082000F09F
:100360006DFC10B1082000F07AFC10BD10B5102013
:1003700000F064FC10B1102000F071FC10BD10B54D
:10038000202000F05BFC10B1202000F068FC402031
:1003900000F054FC10B1402000F061FC802000F01F
:1003A0004DFC10B1802000F05AFC10BD0038014017
:1003B0000008004000000020000C00400010004039
:1003C0000014004070470146302905DB3A2903DA62
:1003D000A1F13002D0B210E0412905DB472903DA50
:1003E000A1F13702D0B208E0612905DB672903DA01
:1003F000A1F15702D0B200E00020704730B50346AB
:10040000FD4800684079002865D1652B05D0412B57
:1004100003D0522B01D0542B5DD1F74800680079EE
:1004200050B90120F449096808710020F2490968AF
:100430004871F2480370A9E1EF480068007901288B
:10044000F9D1ED48006840790028F4D1EB484370B9
:100450000078652819D1E9484078652815D1012030
:10046000E54909684871E449096888710020E24952
:10047000096848720220E049096848810020E04983
:1004800008800120DF49087080E1DC4800784128BD
:1004900003D1DA484078542807D0D8480078522849
:1004A000C9D1D64840785428C5D10120D24909681D
:1004B0004871D149096888710020CF49096848729C
:1004C0000220CD49096848810020CD4908800220DA
:1004D000CC4908705AE1CB48007801287ED1C64843
:1004E00000688079012851D1C348006840890628F6
:1004F0004CDAC14800684089C0490B54BE480068C6
:100500004089401CBC4909684881BB480068408953
:10051000062890D1B9498878FFF755FF0546B749B5
:10052000C878FFF750FF00EB0515B4490879FFF7CD
:100530004AFF00EB051085B2B0494879FFF743FF49
:1005400000EB051085B2AE480580AF4800684580D5
:10055000AB48008840F2A651884208DC0120A64939
:100560000968C8710020A4490968887109E0002061
:10057000A14909680871A049096848719E4909683C
:10058000887100209C4909684872FFE09A48006819
:10059000C07900282ADD00209749096848729648EA
:1005A0000068418996480088801D81420BDA924894
:1005B0000068408991490B548F4800684089401C6D
:1005C0008D49096848818C48006841898C480088B9
:1005D000801D8142D9DB0020874900E082E0096864
:1005E000C8710120844909680872CFE08248006818
:1005F000007A0028C9DD8048006841898048008869
:100600000A3081420BDA7C48006840897B490B54F0
:10061000794800684089401C7749096848817648D4
:1006200000684189764800880A308142ADDB0120AC
:10063000714909680873734800787349096808703C
:10064000002408E0A01D6D49095C6F480068001D8A
:100650000155601C84B26A4800888442F2DB0021A4
:1006600069480068001D015565490988891D634A6C
:10067000505CFFF7A8FE054661490988C91D5F4A1D
:10068000505CFFF7A0FE00EB05155D4909880831B5
:100690005A4A505CFFF797FE00EB051085B25849A7
:1006A00009880931554A505CFFF78DFE00EB0510B3
:1006B00085B255480068A0F8AA5500204E4909683F
:1006C00008714D49096848714B49096888714A4960
:1006D0000968C8714849096808724A490870484958
:1006E000088053E04748007802284FD1424800680C
:1006F000408940F2A551884248DA3F480068408965
:100700003E490B543C4800684089401C3A490968FE
:10071000488100203849096848720D2B36D1394884
:10072000007839490968087001203349096808735D
:1007300000203449087000212F4800684089401E7D
:100740002E4A1154002407E02C48015D2E48006811
:10075000001D0155601C84B2274800684089401C78
:10076000A042F1DC00202449096808712249096887
:1007700048712149096888711F490968C8711E4973
:10078000096808721F4908701D49088030BD70470C
:10079000194800680079002804DC1748006840798F
:1007A000002828DD14480068407A401C1249096876
:1007B000487211480068407A32281CDD00200E493A
:1007C000096808710C49096848710B490968887102
:1007D00009490968C8710849096808720649096821
:1007E0000873074908800449096848720249096882
:1007F00048810449087070472C000020CC0000207C
:1008000034000020180000203000002070B5B0B087
:100810000646002522A1304602F04CFB0546002486
:1008200010E0694601EB44102A461EA102F086FB47
:10083000601C84B2062C00DB06E019A1002002F047
:1008400039FB0546002DECD100BF17A1684602F028
:1008500023FB90B908AA13A115480068443002F0A0
:100860006DFB582212480168124800F0A2F81048A7
:100870000168443110A002F051FB30B070BD7047E8
:1008800070B504460D46E1B20E4800F0DBFC00BF37
:1008900040210C4800F044FD0028F9D0204670BDEE
:1008A0002C0000002573000041542B534E00000023
:1008B0000800002000F80708534E3A2573204F4BDC
:1008C0000D0A000000380140012080F3138800BFAA
:1008D00000BF8B48006800F4E0608A490843001DAF
:1008E00087490860BFF34F8F00BF00BFFEE786490E
:1008F0000968096A854A914205D083490968096AED
:10090000834A914203D180490968086A00E07F4820
:100910007B49091F08607047F0B505460B46B5F1E5
:10092000006F02D37B48854201D90120F0BD4FEA18
:10093000E27C02EB9C7C4FEAAC0CA2EB8C0CBCF191
:10094000000F07D110464FEAE27C02EB9C7CCCF30F
:100950008F060AE010464FEAE27C02EB9C7C4FEAED
:10096000AC0C0CF1010C1FFA8CF600211DE005EB1C
:1009700081073C68200E4FF0030C0CEB810C03F850
:100980000C00C4F307404FF0020C0CEB810C03F891
:100990000C00C4F307204FF0010C0CEB810C03F8A2
:1009A0000C0003F82140481C81B2B142DFDB00207B
:1009B000BCE72DE9F05F074688461446B7F1006FA3
:1009C00003D338195349884202D30120BDE8F09F70
:1009D00001F0EFFEA7F100694FEAD92A4FF000605D
:1009E00000EBCA2BC9F30A0010B9584601F026FFE4
:1009F000E11704EB91718910A4EB810131B9204614
:100A0000E11704EB9171C1F38F0406E02046E11772
:100A100004EB91718910491C8CB200251DE0032064
:100A200000EB850018F800603602022000EB85001C
:100A300018F8000006433602012000EB850018F884
:100A400000000643360218F82500064307EB850030
:100A5000314601F0C3FF681C85B2A542DFDB01F01F
:100A6000B4FE0020B2E710B508212B4800F0F3F9DE
:100A700010BB2A480088401C284908800846008886
:100A8000B0F5967F18DD002008801F480068006AD6
:100A90001E49884204D11E481B490968086203E0C8
:100AA0001A481949096808625822174801681C4801
:100AB000FFF77FFF002010BD0020FCE710B51348B2
:100AC00011490968086210490968486215A217A10E
:100AD0000D480068283002F031FA4FF6FF700A49DD
:100AE0000968088700200849096848870649096895
:100AF00088875822044801680948FFF75AFF10BD4B
:100B00000CED00E00000FA050800002000000108DC
:100B10000078040800000808001401403600002096
:100B200000F8070856312E30300000002573000011
:100B30000648804706480047FEE7FEE7FEE7FEE777
:100B4000FEE7FEE7FEE7FEE7FEE7FEE7B314000878
:100B500031010008002044490860091D0860091D92
:100B60000860091D086041483F491431086070471A
:100B700000213D498279002A3AD00A46126803686A
:100B80009A430B461A600A1D126803689A430B1DAC
:100B90001A60027911440A6803681A430A60324AEB
:100BA0000832126803689A432F4B08331A601A1DE3
:100BB000126803689A432C4B0C331A604279102A4E
:100BC0000ED11A1F126803681A43274B08331A60A4
:100BD0001A1D126803681A43234B0C331A600DE088
:100BE0002149427911440A6803681A430A6005E002
:100BF000027911440A6803689A430A607047002129
:100C0000016001710C214171002181717047164909
:100C1000103109680143144A1032116070470146CF
:100C20000020114A143212680A400AB1012000E083
:100C3000002070470C4914310860704701460020BD
:100C40000022094B1B6803EA0102074B14331B689F
:100C50000B4013B10AB1012000E0002070470249A7
:100C6000143108607047000000040140FFFF0F00CE
:100C700010B50446CC48844208D10121042001F07B
:100C80002FFD0021042001F02BFD46E0C7488442DF
:100C900008D10121082001F023FD0021082001F0E6
:100CA0001FFD3AE0C248844208D10121102001F022
:100CB00017FD0021102001F013FD2EE0BD488442F5
:100CC00008D10121202001F00BFD0021202001F09E
:100CD00007FD22E0B848844208D10121402001F0FC
:100CE000FFFC0021402001F0FBFC16E0B3488442E9
:100CF00008D10121802001F0F3FC0021802001F0C7
:100D0000EFFC0AE0AE48844207D10121801501F0D2
:100D1000E7FC0021A01501F0E3FC10BD10B5012196
:100D2000084601F0DDFC0021012001F0D9FC10BDD6
:100D30002DE9F04102460025002600200023002472
:100D4000002791F803C00CF00F0591F803C00CF0D8
:100D5000100CBCF1000F03D091F802C04CEA05055D
:100D600091F800C0BCF1000F31D0146800202BE0D6
:100D70004FF0010C0CFA00F3B1F800C00CEA0306C6
:100D80009E4220D183004FF00F0C0CFA03F7BC43B6
:100D900005FA03FC4CEA040491F803C0BCF1280FE7
:100DA00006D14FF0010C0CFA00FCC2F814C00AE0A6
:100DB00091F803C0BCF1480F05D14FF0010C0CFABB
:100DC00000FCC2F810C0401C0828D1D31460B1F850
:100DD00000C0BCF1FF0F34DD546800202EE000F1AC
:100DE000080C4FF0010808FA0CF3B1F800C00CEA47
:100DF00003069E4221D183004FF00F0C0CFA03F73B
:100E0000BC4305FA03FC4CEA040491F803C0BCF1AE
:100E1000280F05D100F1080C08FA0CF8C2F814806C
:100E200091F803C0BCF1480F07D100F1080C4FF056
:100E3000010808FA0CF8C2F81080401C0828CED32C
:100E40005460BDE8F0814FF6FF710180022181708E
:100E50000421C17070470246002093680B400BB11B
:100E6000012000E0002070470146886880B270478A
:100E700002460020D3680B400BB1012000E00020A7
:100E800070470146C86880B2704701617047416190
:100E900070470AB1016100E041617047C16070476D
:100EA0004FF480320A438261816182618269826982
:100EB000704702460020434B18684FF68073184075
:100EC00040EA021008433F4B186070473E49C86132
:100ED0007047F0B50A46002300240021002500F0E9
:100EE0000046B6F1004F02D1364EF16901E0354EB1
:100EF0007168C0F3034583B200F44016B6F5401F95
:100F000008D121F070612F4E766826F070662D4F63
:100F10007E6012E000F48016B6F5801F06D103262D
:100F200006FA05F4A14341F0706106E0460D360172
:100F300003FA06F6B14341F0706122B1460D360165
:100F400003FA06F6314300F00046B6F1004F02D135
:100F50001C4EF16101E01B4E7160F0BD30B5002206
:100F60008B071C0F0F2303FA04F2164B08338C1067
:100F700053F824309343134C08348D1044F8253033
:100F800023468C1053F824308C07240F00FA04F405
:100F900023430C4C08348D1044F8253030BD0A49E9
:100FA000DC3108607047000000080140000C01407F
:100FB000001001400014014000180140001C0140D5
:100FC00000200140000001400000204210B504460E
:100FD000FB48844209D10121880301F081FB0021F3
:100FE0004FF4804001F07CFB32E0F648844209D1A6
:100FF0000121480401F081FB00214FF4003001F091
:101000007CFB25E0F048844209D10121880401F0ED
:1010100074FB00214FF4802001F06FFB18E0EB48D7
:10102000844209D10121C80401F067FB00214FF47B
:10103000002001F062FB0BE0E548844208D1012169
:10104000080501F05AFB00214FF4801001F055FB18
:1010500010BD2DE9F04786B005460E460024A24695
:1010600000BFA1460027B08900B100BF2F462C8ADF
:101070004CF6FF700440F08804432C82AC894EF695
:10108000F3100440B0883189084371890843044350
:10109000AC81AC8A4FF6FF400440B0890443AC8277
:1010A00001A801F096FAC648874202D1DDF810A0E7
:1010B00001E0DDF80CA0A88900F4004040B10AEB83
:1010C000CA0000EB0A1031684900B0FBF1F807E0F4
:1010D0000AEBCA0000EB0A1031688900B0FBF1F896
:1010E0006420B8FBF0F004012009642101FB1089A1
:1010F000A88900F4004040B1322000EBC900B0FBE9
:10110000F1F000F00700044308E0322000EB091082
:101110006421B0FBF1F000F00F0004432C8106B015
:10112000BDE8F0874FF41651016000218180C18035
:1011300001810C21418100218181704710B5024657
:101140000020108A4FF2FF0318400B884C8823437D
:101150008C882343CC8823431843108210BD002180
:10116000018041808180C180704721B1828942F431
:101170000052828104E082894DF6FF731A40828119
:101180007047F0B50346002400260025002040F6F5
:101190006A17B94200D100BF1846C1F3421401F0EA
:1011A0001F06012707FA06F5012C01D10C3004E0D7
:1011B000022C01D1103000E014301AB107682F431F
:1011C000076002E00768AF430760F0BD1AB1838A89
:1011D0000B43838202E0838A8B4383827047028AB7
:1011E0004FF6F0731A400282028A0A430282704765
:1011F00082894FF2FF731A40828182890A43828179
:10120000704721B1828942F00202828104E0828922
:101210004FF6FD731A4082817047028A4FF6DF73E2
:101220001A400282028A0A430282704721B1028A6E
:1012300042F48042028204E0028A4BF6FF731A40B5
:1012400002827047C1F30802828070470146888895
:10125000C0F308007047818941F001018181704726
:10126000028BD2B20283028B42EA012202837047D0
:10127000028B02F47F420283028B0A43028370478F
:1012800021B1828A42F02002828204E0828A4FF6F3
:10129000DF731A408282704721B1828A42F01002C5
:1012A000828204E0828A4FF6EF731A40828270478E
:1012B00021B1828A42F00802828204E0828A4FF6DB
:1012C000F7731A408282704721B1828942F400424A
:1012D000828103E08289C2F30E028281704721B1CC
:1012E000828A42F40062828204E0828A4FF2FF73B3
:1012F0001A4082827047828A4FF6FB731A408282BC
:10130000828A0A438282704721B1828A42F00202B5
:10131000828204E0828A4FF6FD731A40828270470F
:1013200002460020B1F5007F00D100BF13880B40BA
:101330000BB1012000E00020704701F40072B2F50B
:10134000007F00D100BFCA430280704770B50246DB
:10135000002400230025002040F66A16B14200D187
:1013600000BFC1F3421501F01F03012606FA03F383
:10137000012D02D19689334006E0022D02D1168A52
:10138000334001E0968A33400C12012606FA04F439
:101390001688344013B10CB1012000E0002070BD6C
:1013A00010B50022002340F66A14A14200D100BF0C
:1013B0000A1201249440A3B2DC43048010BD000053
:1013C000003801400044004000480040004C00400C
:1013D000005000400CB50020019000906C4800685F
:1013E00040F480306A49086000BF6948006800F432
:1013F000003000900198401C0190009818B90198A5
:10140000B0F5A06FF1D16248006800F4003010B16F
:101410000120009001E0002000900098012843D1B5
:101420005C48006840F010005A49086008460068AF
:1014300020F0030008600846006840F002000860E1
:10144000534840685249486008464068486008462A
:10145000406840F4806048600846406820F47C1092
:1014600048600846406840F4E81048600846006854
:1014700040F08070086000BF4548006800F00070D0
:101480000028F9D04248406820F0030040494860F5
:101490000846406840F00200486000BF3C48406891
:1014A00000F00C000828F9D10CBD10B5FFF792FF31
:1014B00010BD10B53648006840F00100344908609E
:1014C0000846406834490840314948600846006889
:1014D000324908402E4908600846006820F4802000
:1014E00008600846406820F4FE0048604FF41F0082
:1014F0008860FFF7DAFF4FF000602949086010BDEF
:1015000010B5002100200022214B5B6803F00C0184
:1015100021B1042906D0082928D107E0214B224C0B
:10152000236027E01F4B204C236023E0184B5B68AF
:1015300003F47010164B5B6803F48032022303EB54
:10154000904022B9194B4343174C23600DE0104BD8
:101550005B6803F4003323B1144B4343124C236004
:1015600003E0104B4343104C236003E00D4B0E4C43
:10157000236000BF00BF064B5B68C3F303130C4C32
:10158000E15C094B1B68CB40074C236010BD000099
:1015900000100240002002400000FFF8FFFFF6FEAE
:1015A00008ED00E000127A003800002000093D003C
:1015B0003C00002010B50446FE48844208D10121B9
:1015C000C01401F08DF80021E01401F089F8C4E0A6
:1015D000B4F1804F08D10121084601F08EF80021B6
:1015E000012001F08AF8B8E0F348844208D10121D3
:1015F000022001F082F80021022001F07EF8ACE028
:10160000EE48844208D10121042001F076F800213F
:10161000042001F072F8A0E0E948844208D10121D9
:10162000082001F06AF80021082001F066F894E033
:10163000E448844208D10121102001F05EF8002125
:10164000102001F05AF888E0DF48844208D10121D7
:10165000202001F052F80021202001F04EF87CE01B
:10166000DA48844208D10121401401F039F8002100
:10167000601401F035F870E0D548844209D10121A9
:10168000C80401F02DF800214FF4002001F028F8E3
:1016900063E0D048844209D10121080501F020F817
:1016A00000214FF4801001F01BF856E0CA48844234
:1016B00009D10121480501F013F800214FF4001071
:1016C00001F00EF849E0C548844208D101214020CC
:1016D00001F013F80021402001F00FF83DE0C04870
:1016E000844208D10121802001F007F800218020E8
:1016F00001F003F831E0BB48844208D10121801594
:1017000000F0FBFF0021A01500F0F7FF25E0B64830
:10171000844209D10121080400F0E2FF00214FF4C6
:10172000803000F0DDFF18E0B048844209D101218B
:10173000480400F0D5FF00214FF4003000F0D0FF46
:101740000BE0AB48844208D10121880400F0C8FFB7
:1017500000214FF4802000F0C3FF10BD002202885A
:10176000944B98420ED0994B98420BD0B0F1804FD9
:1017700008D0914B984205D0904B984202D0904BA4
:10178000984204D14FF68F731A404B881A438D4B01
:10179000984207D08C4B984204D04FF6FF431A4032
:1017A000CB881A4302808B8883850B880385814B05
:1017B00098420BD0854B984208D08B4B984205D06D
:1017C0008A4B984202D08A4B984201D10B7A038609
:1017D00001238382704770B5002400220023058C0A
:1017E0004FF6FE7635400584028C8388048B4FF6D5
:1017F0008F752C40B51E2C400D882C43751E2A4039
:101800000D892A434D882A436A4DA8420BD06F4D5B
:10181000A84208D0744DA84205D0744DA84202D009
:10182000734DA84213D14FF6F7752A404D892A43CC
:101830004FF6FB752A408D882A434FF6FF652B40F3
:101840004FF6FF552B408D892B43CD892B43838049
:101850000483CD888586028470BD70B50024002283
:101860000023058C4FF6EF7635400584028C838883
:10187000048B48F6FF752C404FF6FF452C400D8831
:101880004FF6FF7606EA05252C434FF6DF752A4012
:101890000D8906EA05152A434D8806EA05152A43EF
:1018A000444DA84202D0494DA8421DD14FF67F7544
:1018B0002A404D894FF6FF7606EA05152A434FF672
:1018C000BF752A408D8806EA05152A434FF6FF3575
:1018D0002B404FF2FF752B408D8906EA85052B437F
:1018E000CD8906EA85052B4383800483CD8805874F
:1018F000028470BD70B5002400220023058C4FF6D1
:10190000FF6635400584028C8388848B4FF68F7583
:101910002C404FF6FC752C400D882C434FF6FF559C
:101920002A400D894FF6FF7606EA05252A434D88A1
:1019300006EA05252A431F4DA84202D0234DA8429E
:101940001DD14FF2FF752A404D894FF6FF7606EA0A
:1019500005252A434FF6FF352A408D8806EA0525DE
:101960002A434EF6FF752B404DF6FF752B408D89AF
:1019700006EA05152B43CD8906EA05152B4383801E
:101980008483CD888587028470BD70B500220023D2
:101990000024058C4EF6FF7635400584038C848840
:1019A000828B48F6FF752A404FF6FF452A400D8886
:1019B00020E00000002C014000040040000800402E
:1019C000000C0040001000400014004000340140B2
:1019D000004C0140005001400054014000180040FC
:1019E000001C004000200040004001400044014035
:1019F000004801404FF6FF7606EA05252A434DF6DA
:101A0000FF752B400D8906EA05352B434D8806EA04
:101A100005352B43FA4DA84202D0FA4DA84208D111
:101A20004BF6FF752C408D894FF6FF7606EA85153B
:101A30002C4384808283CD88A0F84050038470BDFD
:101A4000828B4FF2FF331A408283828B4FF6FF73F3
:101A500003EA01231A4382837047F0B50C4615460A
:101A6000002200210026078C4EF6FF7C07EA0C07B7
:101A70000784828B018C4FF6FF7707EA043640F625
:101A8000FF473A404FF6FF7707EA05273A434FF6FC
:101A9000FF7707EA03373A43D94FB8420ED0D94F00
:101AA000B8420BD0B0F1804F08D0D74FB84205D024
:101AB000D64FB84202D0D64FB84206D14DF6FF7786
:101AC000394046F48057394305E047F6FF5739401F
:101AD00044F48057394382830184F0BD828B4FF6F2
:101AE000F3731A408283828B0A4382837047F0B576
:101AF0000C461546002200210026078C4FF6FF6C8D
:101B000007EA0C070784828B018C4FF6FF7707EA00
:101B100004264FF60C773A404FF6FF7707EA031793
:101B20002F433A43B64FB8420ED0B64FB8420BD00F
:101B3000B0F1804F08D0B44FB84205D0B34FB8428F
:101B400002D0B34FB84206D14FF6FF57394046F4A2
:101B50008077394305E04FF2FF57394044F48077EE
:101B6000394382830184F0BD028B4FF2FF331A4068
:101B70000283028B4FF6FF7303EA01231A430283A9
:101B80007047F0B50C461546002200210026078C50
:101B90004FF6EF7C07EA0C070784028B018C4FF6A7
:101BA000FF7707EA041640F6FF473A404FF6FF7703
:101BB00007EA03373A434FF6FF7707EA05273A4328
:101BC0008F4FB8420ED08F4FB8420BD0B0F1804F3C
:101BD00008D08D4FB84205D08C4FB84202D08C4F00
:101BE000B84206D14FF6DF77394046F01007394347
:101BF00005E04FF65F77394044F010073943028320
:101C00000184F0BD028B4FF6F3731A400283028BFE
:101C10000A4302837047F0B50C46154600220021A6
:101C2000068C4FF6FE773E400684028B018C4FF601
:101C30000C7632407E1C06EA03162E433243704E69
:101C4000B0420ED06F4EB0420BD0B0F1804F08D0F2
:101C50006D4EB04205D06D4EB04202D06C4EB042D7
:101C600006D14FF6FD76314044F00106314305E0E0
:101C70004FF6F576314044F001063143028301848A
:101C8000F0BD70B505460C465D4885420ED05D48F6
:101C900085420BD0B5F1804F08D05B48854205D016
:101CA0005A48854202D05A48854200D100E000BF20
:101CB000208850B92389A28861882846FFF7ABFFA6
:101CC000E1882846FFF79EFF25E0208804280AD1F6
:101CD0002389A28861882846FFF753FFE1882846B8
:101CE000FFF742FF17E0208808280AD12389A2883D
:101CF00061882846FFF7FBFEE1882846FFF7EEFEE5
:101D000009E02389A28861882846FFF7A6FEE188BA
:101D10002846FFF795FE70BD2DE9F04105460C46BB
:101D200000260127608808B9022600E00026A08866
:101D3000012801D1022700E001272088A0B92389CA
:101D4000A28861882846FFF766FFE1882846FFF7EA
:101D500059FF23893A4631462846FFF712FFE188AA
:101D60002846FFF701FF13E02389A28861882846EF
:101D7000FFF707FFE1882846FFF7F6FE23893A467A
:101D800031462846FFF747FFE1882846FFF73AFF2C
:101D9000BDE8F0810A884B881A438B881A43CB88A8
:101DA0001A430B891A434B891A438B891A43A0F8AB
:101DB000442070474FF6FF71818000210180C1806F
:101DC0004180017270470021018041808180C18083
:101DD000018141818181C181704700210180418061
:101DE000012181800021C180018170470021018093
:101DF00041808180C18001814181818170470000E3
:101E0000002C014000340140000400400008004064
:101E1000000C004021B1028842F00102028004E07F
:101E200002884FF6FE731A400280704731B1B0F855
:101E3000442042F40042A0F8442005E0B0F84420D9
:101E4000C2F30E02A0F8442070471AB183890B43F5
:101E5000838102E083898B4383817047818270474D
:101E600041EA0203A0F8483070471AB183890B4356
:101E7000838102E083898B438381704701894FF618
:101E8000F8721140018170470A46002101894FF61E
:101E90008F73194011430181704730B504460D46D8
:101EA00029462046FFF7F0FF208940F007002081F7
:101EB00030BD2DE9F04104460D4616461F46602D03
:101EC00006D13B46012231462046FFF75AFE05E087
:101ED0003B46012231462046FFF79DFE294620461B
:101EE000FFF7D2FF208940F007002081BDE8F08194
:101EF00030B50C4600210189C9B24FF6FF7505EADD
:101F00000325154325432943018130BD2DE9F041C7
:101F100005460E4617469846002443463A46314643
:101F20002846FFF7E5FF2C894FF6F870044044F08F
:101F300007044FF68F70044044F070042C81BDE814
:101F4000F081F0B504460D4616461F463B46324624
:101F500029462046FFF7CCFF208940F480402081AD
:101F6000F0BD0185828270470A46002101884FF644
:101F70008F731940114301807047F0B50C46154628
:101F80001E460021002200230189028B038C4FF69C
:101F9000F877394021434FF6FC473A4040F20117A9
:101FA0003A434FF6DD773B404FF6FF7707EA0617D7
:101FB0002F433B43018102830384F0BD0A46002185
:101FC000018B4FF68F7319401143018370470A4606
:101FD0000021018B48F6FF7319404FF6FF7303EAA7
:101FE00002231943018370470A460021818B4FF673
:101FF0008F7319401143818370470A460021818BFA
:1020000048F6FF7319404FF6FF7303EA02231943A2
:102010008183704721B1028842F08002028004E08F
:1020200002884FF67F731A400280704721B1828880
:1020300042F00402828004E082884FF6FB731A406B
:102040008280704721B1828842F00802828004E0D9
:1020500082884FF6F7731A408280704721B18288D8
:1020600042F00102828004E082884FF6FE731A403B
:10207000828070470A460021018B4FF6F7731940A2
:102080001143018370470A460021018B4FF2FF7311
:1020900019404FF6FF7303EA022319430183704787
:1020A0000A460021818B4FF6F77319401143818353
:1020B00070470A460021818B4FF2FF7319404FF69B
:1020C000FF7303EA02231943818370470A46002104
:1020D000018B4FF6FB7319401143018370470A4689
:1020E0000021018B4FF6FF3319404FF6FF7303EACF
:1020F00002231943018370470A460021818B4FF662
:10210000FB7319401143818370470A460021818B7C
:102110004FF6FF3319404FF6FF7303EA02231943CA
:10212000818370470A460021018B4FF67F73194067
:102130001143018370470A460021018BC1F30E0150
:102140004FF6FF7303EA02231943018370470A46DF
:102150000021818B4FF67F731940114381837047B3
:102160000A460021818BC1F30E014FF6FF7303EA8B
:1021700002231943818370470A460021018C4FF6E0
:10218000FD7319401143018470470A460021018CF8
:102190004FF6F77319401143018470470A46002136
:1021A000018C4FF6DF7319404FF6FF7303EA0213F9
:1021B0001943018470470A460021018C4FF67F7352
:1021C00019404FF6FF7303EA021319430184704765
:1021D0000A460021018C4FF6FF5319404FF6FF735A
:1021E00003EA02231943018470470A460021018C47
:1021F0004FF2FF7319404FF6FF7303EA02231943AE
:10220000018470470A460021018C4DF6FF73194086
:102210004FF6FF7303EA023319430184704730B568
:10222000002301248C40A3B2048C9C430484048CBE
:1022300002FA01F5ADB22C43048430BD30B5002361
:1022400004248C40A3B2048C9C430484048C02FAC2
:1022500001F5ADB22C43048430BD70B503460020B7
:1022600000241846183001258D40ACB21D8CA543C2
:102270001D8409B1082909D100EB6100056825F02A
:10228000700505600568154305600EE00D1FC5F378
:102290004E052844056825F4E045056005684FF6BD
:1022A000FF7606EA02263543056070BD21B102883B
:1022B00042F00202028004E002884FF6FD731A40E9
:1022C0000280704721B1028842F00402028004E0DB
:1022D00002884FF6FB731A400280704721B1828852
:1022E00042F08002828004E082884FF67F731A40B9
:1022F0008280704702884FF6F7731A400280028886
:102300000A430280704782884FF68F731A4082809A
:1023100082880A438280704702894FF6F8731A4018
:10232000028102890A430281704702894FF67F7356
:102330001A40028102890A430281704781847047F2
:102340008185704781867047018770478187704714
:10235000A0F84010704702884FF6FF431A400280F1
:1023600002880A43028070470146888E7047014602
:10237000088F70470146888F70470146B1F84000CA
:1023800070470146888C70470146088D70470246A9
:102390000020138A0B400BB1012000E000207047A1
:1023A000CA430282704730B5024600200023002451
:1023B000158A05EA0103958905EA010413B10CB1F8
:1023C000012000E0002030BDCA43028270470000B7
:1023D000DF48006840F00100DD49086008464068B9
:1023E000DC490840DA49486008460068DA49084094
:1023F000D74908600846006820F480200860084635
:10240000406820F4FE0048604FF41F008860704769
:10241000CF49096821F48031CD4A1160114609681D
:1024200021F480211160B0F5803F03D0B0F5802FFA
:102430000ED106E0C649096841F48031C44A1160F2
:1024400007E0C349096841F4A021C14A116000E0D6
:1024500000BF00BF704710B50146002200230020D6
:102460004A11012A02D1BA4C236806E0022A02D19D
:10247000B74C236A01E0B64C636A01F01F020124E5
:1024800094401C400CB1012000E0002010BD38B584
:10249000002000900024002500BF3120FFF7DBFF63
:1024A00005460098401C00900098B0F5A06F01D040
:1024B000002DF2D03120FFF7CEFF08B1012400E05B
:1024C0000024204638BD01460020A14A106820F0B3
:1024D000F80040EAC10010607047A04908607047EA
:1024E000024600209A4B586820F47C1042EA01030F
:1024F0001843974B586070479849086670470146E3
:102500000020934A506820F0030008435060704751
:102510008F48406800F00C007047014600208C4A4C
:10252000506820F0F00008435060704701460020DA
:10253000874A506820F4E0600843506070470146C5
:102540000020834A506820F4605040EAC100506087
:10255000704729B17E4A527A02437D4B5A7204E099
:102560007B4A527A82437A4B5A7270477B49D83100
:102570000860704701460020754A506820F44040CA
:102580000843506070470021714A20321170704A30
:1025900082F82010012802D004280AD104E0012189
:1025A0006B4A2032117005E00521694A2032117012
:1025B00000E000BF00BF7047694908607047644988
:1025C000096A0143624A11627047654944390860EB
:1025D000704730B500210022002400235C4D6D6857
:1025E00005F00C0121B1042905D0082923D105E00B
:1025F0005C4D056022E05B4D05601FE0544D6D6849
:1026000005F47012524D6D6805F48034022505EB17
:1026100092421CB9544D554305600BE04C4D6D681A
:1026200005F400351DB1504D5543056002E04D4D98
:102630005543056002E04B4D056000BF00BF444DAF
:102640006D6805F0F0010909484D6B5C0568DD40D7
:1026500045603F4D6D6805F4E061090A434D6B5CD0
:102660004568DD4085603A4D6D6805F46051C90AE2
:102670003E4D6B5C4568DD40C560354D6D6805F4C9
:102680004041890B3A4D6B5CC568B5FBF3F50561BC
:1026900030BD29B12E4A526902432D4B5A6104E0E4
:1026A0002B4A526982432A4B5A61704729B1284A02
:1026B00092690243264B9A6104E0254A926982435B
:1026C000234B9A61704729B1214AD2690243204BBA
:1026D000DA6104E01E4AD26982431D4BDA61704719
:1026E00029B11B4AD2680243194BDA6004E0184A48
:1026F000D2688243164BDA60704729B1144A1269D6
:102700000243134B1A6104E0114A12698243104BD1
:102710001A61704712494039086070470F49C86410
:1027200070470B49C87170470948406A40F0807093
:1027300007494862704701460020054A92680A40EE
:102740000AB1012000E000207047014988727047FB
:10275000001002400000FFF8FFFFF6FE00004242BA
:102760008004424200127A0000093D004C00002023
:102770005C00002001460020FE4A106800F038008E
:10278000084310607047FB49096821F00801F94AC5
:10279000116011460968014311607047F5490968E5
:1027A00021F01001F34A11601146096801431160DC
:1027B0007047F148EF494860F04848607047EE487C
:1027C000EC494860ED4848607047EA48006940F0CD
:1027D0008000E84908617047E648006940F08000E1
:1027E000E449086170470420E249C96801F0010129
:1027F00009B101200EE0DF49C96801F0040109B107
:10280000022007E0DB49C96801F0100109B103208B
:1028100000E00420704700B502460423FFF7E3FF01
:10282000034603E0FFF7DFFF0346521E012B01D1F1
:10283000002AF7D102B90523184600BD30B5044679
:1028400004254FF43020FFF7E6FF0546042D17D18D
:10285000C848006940F00200C64908610846446162
:10286000006940F0400008614FF43020FFF7D3FFCB
:102870000546C048006941F6FD710840BD49086140
:10288000284630BD10B504244FF43020FFF7C3FFB5
:102890000446042C16D1B748006940F00400B5493D
:1028A00008610846006940F0400008614FF430209C
:1028B000FFF7B1FF0446AF48006941F6FB710840DD
:1028C000AC490861204610BD00B502460423FFF75D
:1028D0008AFF034603E0FFF786FF0346521E012BE3
:1028E00001D1002AF7D102B90523184600BD10B561
:1028F00004244FF43020FFF7E7FF0446042C16D1E0
:102900009C48006940F004009A4908610846006943
:1029100040F0400008614FF43020FFF7D5FF044637
:102920009448006941F6FB710840924908612046CD
:1029300010BD00208F49C96901F0020109B10120D1
:1029400000E00020704730B5A5250424FFF7F1FF13
:1029500000B100254FF43020FFF75DFF0446042C42
:102960003AD1854883498860844888600846006970
:1029700040F0200008610846006940F0400008610E
:102980004FF43020FFF747FF0446042C1BD1794851
:10299000006941F6DF710840764908610846006920
:1029A00040F01000086176480580E002FFF733FF31
:1029B0000446052C10D06F48006941F6EF710840BD
:1029C0006C49086108E0052C06D06A48006941F6A8
:1029D000EF71084067490861204630BD78B506466A
:1029E0000C46042500200090E802FFF714FF05467E
:1029F000042D24D15F48006940F001005D49086161
:102A00003480E802FFF707FF0546042D10D1B01C03
:102A10000090200C00990880E802FFF7FCFE0546B4
:102A20005448006941F6FE7108405249086106E0C9
:102A30005048006941F6FE7108404E490861284639
:102A400078BD70B504460D460426F002FFF7E3FE9C
:102A50000646042E11D14748006940F0010045495F
:102A600008612580F002FFF7D6FE0646414800695E
:102A700041F6FE7108403F490861304670BD70B5AF
:102A800005460E460424E002FFF7C5FE0446042C6A
:102A900017D1394837498860384888600846006946
:102AA00040F0100008612E80E002FFF7B4FE0446FB
:102AB000052C06D02F48006941F6EF7108402D49DA
:102AC0000861204670BD2DE9F04304464FF6FF76BD
:102AD0003746B046B1460425E443E6B2C4F30727BF
:102AE000C4F307484FEA1469E802FFF794FE05466D
:102AF000042D49D120481F49886020488860084635
:102B0000006940F010000861FF2E06D01C48083014
:102B10000680E802FFF77FFE0546042D08D1FF2F4F
:102B200006D017480A300780E802FFF774FE054612
:102B3000042D0AD1B8F1FF0F07D011480C30A0F8CE
:102B40000080E802FFF767FE0546042D0AD1B9F1BF
:102B5000FF0F07D00A480E30A0F80090E802FFF7F8
:102B60005AFE0546052D0FD00248006941F6EF7167
:102B7000084007E00020024023016745AB89EFCD04
:102B800000F8FF1F664908612846BDE8F08330B5AC
:102B9000054604244FF43020FFF73DFE0446042C84
:102BA00041D160485E4988605F4888600846006996
:102BB00040F0200008610846006940F040000861CC
:102BC0004FF43020FFF727FE0446042C22D154484E
:102BD000006941F6DF710840514908610846006903
:102BE00040F0100008611DB100205049088002E04B
:102BF000A5204E4908804FF43020FFF70CFE044614
:102C0000052C10D04648006941F6EF710840444950
:102C1000086108E0052C06D04148006941F6DF71E3
:102C200008403F490861204630BDF0B505460E46D4
:102C3000174604243B483A4988603B488860E002D4
:102C4000FFF7E9FD0446042C19D13548006940F02E
:102C500010003349086147F0F800304328433349F6
:102C6000891C0880E002FFF7D6FD0446052C06D03B
:102C70002B48006941F6EF71084029490861204658
:102C8000F0BD2748C069800870472548006A704732
:102C900000202349096801F0200109B1012000E06A
:102CA0000020704729B11E4A126902431C4B1A6169
:102CB00004E01B4A12698243194B1A6170470146AE
:102CC0000020012908D1164AD26902F001020AB196
:102CD000012008E0002006E0114AD2680A400AB14B
:102CE000012000E0002070470D49C86070470420B3
:102CF0000B49C96801F0010109B101200EE0084942
:102D0000C96801F0040109B1022007E00449C9685B
:102D100001F0100109B1032000E004207047000019
:102D20000020024023016745AB89EFCD00F8FF1F6B
:102D300010B501210420FFF7B9FC01210820FFF79D
:102D4000B5FC01211020FFF7B1FC01212020FFF785
:102D5000ADFC01214020FFF7A9FC01210846FFF747
:102D6000A5FC4FF4006047490880012088701020BE
:102D7000C8704548FDF7DCFF7020424908800120FB
:102D800088701020C8704148FDF7D2FF08203D49E7
:102D90000880012088704820C8703C48FDF7C8FFB3
:102DA00070213A48FEF771F810BD1FB504460121A5
:102DB0008803FFF77BFC4FF400703249088018202D
:102DC000C870032088703048FDF7B2FF4FF4806070
:102DD0002C4908804820C8702B48FDF7A9FF0094B3
:102DE0000020ADF80400ADF80600ADF80800ADF81D
:102DF0000C000C20ADF80A0069462548FEF729F9B9
:102E000001212348FEF7B1F9002240F22551204864
:102E1000FEF7B7F91FBD0EB501210420FFF753FCE3
:102E20001C48FEF7C7FB1B48FFF728F84720ADF802
:102E3000000042F20F70ADF804000020ADF806006B
:102E4000ADF8020069461348FEF788FC01211148DD
:102E5000FFF7E0F801210F48FFF7B6FA012211460B
:102E60000C48FEF7F2FF01210A48FEF7D3FF0EBD22
:102E7000704710B5FFF75CFF4FF4E130FFF795FFA7
:102E800010BD000060000020000801400014014057
:102E9000003801400008004010B5002200E0521C3C
:102EA000835C8C5CA34201D1002BF8D1D8B2E1B293
:102EB000401A10BD70B50F4D00B92868002412E00B
:102EC0000A4602E09E4203D0521C1378002BF9D12F
:102ED000DAB2224305D02BB124B1002100F8011B46
:102EE00004E00446401C0678002EE9D12860204604
:102EF00070BD00006C000020064C074D06E0E06845
:102F000040F0010394E8070098471034AC42F6D330
:102F1000FDF712F964300008843000080FB4054B47
:102F200010B503A9044A029800F02BF810BC5DF814
:102F300014FB000081080008700000200FB4084B4B
:102F400010B504A902AA039800F01BF8044602A9D0
:102F5000002000F081F8204610BC5DF814FB000052
:102F60005930000802E008C8121F08C1002AFAD12F
:102F700070477047002001E001C1121F002AFBD1F9
:102F800070472DE9F84F9946924688460546002736
:102F900006E025280AD051464A4690476D1C7F1C02
:102FA00028780028F5D13846BDE8F88F002315F8B9
:102FB000011F18462E2915D115F8011F04232A29AF
:102FC0000DD06FF02F022978A1F13004092C09D817
:102FD00000EB800002EB400008446D1CF3E758F85A
:102FE000040B6D1C2A78002ADDD0632A07D0732ACF
:102FF0000FD0104651464A4690477F1C2AE018F8E9
:10300000042B8DF8002000218DF801106E4601215F
:1030100003E058F8046B4FF0FF315A074FF00004FB
:1030200001D409E0641C84420BDA8C42FADB325D85
:10303000002AF7D105E0641C8C42FCDB305D0028DF
:10304000F9D1274404E016F8010B51464A4690474F
:10305000641EF8D26D1CA3E70A68531C0B60107045
:103060007047000084300008000000207400000059
:10307000642F0008F830000874000020F40F0000EE
:10308000742F000800000000000000007400002001
:103090000000000000000000000000000000000030
:1030A0000000000000000000000000000000000020
:1030B000A8060020BC0600200000000000A24A0470
:1030C00000000000000000000102030406070809D8
:1030D00000000000010203040102030406070809BE
:1030E00002040608000000000000000000000000CC
:0830F0000000000000000000D8
:0400000508000131BD
:00000001FF
